{
  "contractName": "storeHash",
  "abi": [
    {
      "constant": true,
      "inputs": [
        {
          "internalType": "uint256",
          "name": "",
          "type": "uint256"
        },
        {
          "internalType": "uint256",
          "name": "",
          "type": "uint256"
        }
      ],
      "name": "bitmapIndex",
      "outputs": [
        {
          "internalType": "string",
          "name": "",
          "type": "string"
        }
      ],
      "payable": false,
      "stateMutability": "view",
      "type": "function"
    },
    {
      "constant": true,
      "inputs": [],
      "name": "fileCount",
      "outputs": [
        {
          "internalType": "uint256",
          "name": "",
          "type": "uint256"
        }
      ],
      "payable": false,
      "stateMutability": "view",
      "type": "function"
    },
    {
      "constant": true,
      "inputs": [],
      "name": "fileHash",
      "outputs": [
        {
          "internalType": "string",
          "name": "",
          "type": "string"
        }
      ],
      "payable": false,
      "stateMutability": "view",
      "type": "function"
    },
    {
      "constant": true,
      "inputs": [],
      "name": "searchWord",
      "outputs": [
        {
          "internalType": "string",
          "name": "",
          "type": "string"
        }
      ],
      "payable": false,
      "stateMutability": "view",
      "type": "function"
    },
    {
      "constant": false,
      "inputs": [
        {
          "internalType": "string",
          "name": "_fileHash",
          "type": "string"
        }
      ],
      "name": "set",
      "outputs": [],
      "payable": false,
      "stateMutability": "nonpayable",
      "type": "function"
    },
    {
      "constant": true,
      "inputs": [],
      "name": "get",
      "outputs": [
        {
          "internalType": "string",
          "name": "",
          "type": "string"
        }
      ],
      "payable": false,
      "stateMutability": "view",
      "type": "function"
    },
    {
      "constant": false,
      "inputs": [
        {
          "internalType": "string[][]",
          "name": "_bitmapIndex",
          "type": "string[][]"
        }
      ],
      "name": "setBitmapIndex",
      "outputs": [],
      "payable": false,
      "stateMutability": "nonpayable",
      "type": "function"
    },
    {
      "constant": false,
      "inputs": [
        {
          "internalType": "string",
          "name": "searchToken",
          "type": "string"
        }
      ],
      "name": "searchKeyword",
      "outputs": [],
      "payable": false,
      "stateMutability": "nonpayable",
      "type": "function"
    },
    {
      "constant": true,
      "inputs": [],
      "name": "searchResult",
      "outputs": [
        {
          "internalType": "string",
          "name": "",
          "type": "string"
        }
      ],
      "payable": false,
      "stateMutability": "view",
      "type": "function"
    }
  ],
  "bytecode": "0x6080604052600060025534801561001557600080fd5b50610cf1806100256000396000f3fe608060405234801561001057600080fd5b50600436106100935760003560e01c806374e038661161006657806374e038661461010e5780637e4bd8d81461012c57806381b6e2941461015c57806395790f1c1461017a578063e298f4f41461019657610093565b806324c8c6981461009857806343953519146100b65780634ed3885e146100d45780636d4ce63c146100f0575b600080fd5b6100a06101b2565b6040516100ad9190610adf565b60405180910390f35b6100be610250565b6040516100cb9190610b23565b60405180910390f35b6100ee60048036036100e991908101906109e1565b610256565b005b6100f8610270565b6040516101059190610b01565b60405180910390f35b610116610312565b6040516101239190610b01565b60405180910390f35b61014660048036036101419190810190610a22565b6103b4565b6040516101539190610adf565b60405180910390f35b610164610483565b6040516101719190610adf565b60405180910390f35b610194600480360361018f91908101906109e1565b610521565b005b6101b060048036036101ab91908101906109a0565b61053b565b005b60008054600181600116156101000203166002900480601f0160208091040260200160405190810160405280929190818152602001828054600181600116156101000203166002900480156102485780601f1061021d57610100808354040283529160200191610248565b820191906000526020600020905b81548152906001019060200180831161022b57829003601f168201915b505050505081565b60025481565b806000908051906020019061026c929190610555565b5050565b606060008054600181600116156101000203166002900480601f0160208091040260200160405190810160405280929190818152602001828054600181600116156101000203166002900480156103085780601f106102dd57610100808354040283529160200191610308565b820191906000526020600020905b8154815290600101906020018083116102eb57829003601f168201915b5050505050905090565b606060018054600181600116156101000203166002900480601f0160208091040260200160405190810160405280929190818152602001828054600181600116156101000203166002900480156103aa5780601f1061037f576101008083540402835291602001916103aa565b820191906000526020600020905b81548152906001019060200180831161038d57829003601f168201915b5050505050905090565b600382815481106103c157fe5b9060005260206000200181815481106103d657fe5b90600052602060002001600091509150508054600181600116156101000203166002900480601f01602080910402602001604051908101604052809291908181526020018280546001816001161561010002031660029004801561047b5780601f106104505761010080835404028352916020019161047b565b820191906000526020600020905b81548152906001019060200180831161045e57829003601f168201915b505050505081565b60018054600181600116156101000203166002900480601f0160208091040260200160405190810160405280929190818152602001828054600181600116156101000203166002900480156105195780601f106104ee57610100808354040283529160200191610519565b820191906000526020600020905b8154815290600101906020018083116104fc57829003601f168201915b505050505081565b8060019080519060200190610537929190610555565b5050565b80600390805190602001906105519291906105d5565b5050565b828054600181600116156101000203166002900490600052602060002090601f016020900481019282601f1061059657805160ff19168380011785556105c4565b828001600101855582156105c4579182015b828111156105c35782518255916020019190600101906105a8565b5b5090506105d19190610635565b5090565b828054828255906000526020600020908101928215610624579160200282015b8281111561062357825182908051906020019061061392919061065a565b50916020019190600101906105f5565b5b50905061063191906106ba565b5090565b61065791905b8082111561065357600081600090555060010161063b565b5090565b90565b8280548282559060005260206000209081019282156106a9579160200282015b828111156106a85782518290805190602001906106989291906106e6565b509160200191906001019061067a565b5b5090506106b69190610766565b5090565b6106e391905b808211156106df57600081816106d69190610792565b506001016106c0565b5090565b90565b828054600181600116156101000203166002900490600052602060002090601f016020900481019282601f1061072757805160ff1916838001178555610755565b82800160010185558215610755579182015b82811115610754578251825591602001919060010190610739565b5b5090506107629190610635565b5090565b61078f91905b8082111561078b576000818161078291906107b3565b5060010161076c565b5090565b90565b50805460008255906000526020600020908101906107b09190610766565b50565b50805460018160011615610100020316600290046000825580601f106107d957506107f8565b601f0160209004906000526020600020908101906107f79190610635565b5b50565b600082601f83011261080c57600080fd5b813561081f61081a82610b6b565b610b3e565b9150818183526020840193506020810190508360005b83811015610865578135860161084b888261086f565b845260208401935060208301925050600181019050610835565b5050505092915050565b600082601f83011261088057600080fd5b813561089361088e82610b93565b610b3e565b9150818183526020840193506020810190508360005b838110156108d957813586016108bf88826108e3565b8452602084019350602083019250506001810190506108a9565b5050505092915050565b600082601f8301126108f457600080fd5b813561090761090282610bbb565b610b3e565b9150808252602083016020830185838301111561092357600080fd5b61092e838284610c44565b50505092915050565b600082601f83011261094857600080fd5b813561095b61095682610be7565b610b3e565b9150808252602083016020830185838301111561097757600080fd5b610982838284610c44565b50505092915050565b60008135905061099a81610c97565b92915050565b6000602082840312156109b257600080fd5b600082013567ffffffffffffffff8111156109cc57600080fd5b6109d8848285016107fb565b91505092915050565b6000602082840312156109f357600080fd5b600082013567ffffffffffffffff811115610a0d57600080fd5b610a1984828501610937565b91505092915050565b60008060408385031215610a3557600080fd5b6000610a438582860161098b565b9250506020610a548582860161098b565b9150509250929050565b6000610a6982610c1e565b610a738185610c29565b9350610a83818560208601610c53565b610a8c81610c86565b840191505092915050565b6000610aa282610c13565b610aac8185610c29565b9350610abc818560208601610c53565b610ac581610c86565b840191505092915050565b610ad981610c3a565b82525050565b60006020820190508181036000830152610af98184610a97565b905092915050565b60006020820190508181036000830152610b1b8184610a5e565b905092915050565b6000602082019050610b386000830184610ad0565b92915050565b6000604051905081810181811067ffffffffffffffff82111715610b6157600080fd5b8060405250919050565b600067ffffffffffffffff821115610b8257600080fd5b602082029050602081019050919050565b600067ffffffffffffffff821115610baa57600080fd5b602082029050602081019050919050565b600067ffffffffffffffff821115610bd257600080fd5b601f19601f8301169050602081019050919050565b600067ffffffffffffffff821115610bfe57600080fd5b601f19601f8301169050602081019050919050565b600081519050919050565b600081519050919050565b600082825260208201905092915050565b6000819050919050565b82818337600083830152505050565b60005b83811015610c71578082015181840152602081019050610c56565b83811115610c80576000848401525b50505050565b6000601f19601f8301169050919050565b610ca081610c3a565b8114610cab57600080fd5b5056fea365627a7a7231582012baf3606e1d6755b98a0d3ffe40941000e22209538536d7ffd2481b6d035e566c6578706572696d656e74616cf564736f6c63430005100040",
  "source": "pragma solidity 0.5.16;\r\npragma experimental ABIEncoderV2;\r\n\r\ncontract storeHash {\r\n\t//Upload stored file hash in blockchain\r\n\r\n\tstring public fileHash;\r\n\tstring public searchWord;\r\n\tuint256 public fileCount = 0;\r\n\tstring[][] public bitmapIndex;\r\n\r\n\t//Store hash value\r\n\tfunction set(string memory _fileHash) public {\r\n\r\n\t\tfileHash = _fileHash;\r\n\t\t//fileHash.push(_fileHash);\r\n\t\t//fileCount += 1;\r\n\t}\r\n\r\n\r\n\t//Retrieve hash value\r\n\tfunction get() public view returns (string memory) {\r\n\r\n\t\treturn fileHash;\r\n\r\n\t\t/*\r\n        for (uint i = 0; i < fileCount; i++) {\r\n                return fileHash[i];\r\n            }\r\n        */\r\n\t}\r\n\r\n\tfunction setBitmapIndex (string[][] memory _bitmapIndex) public {\r\n\t\tbitmapIndex = _bitmapIndex;\r\n\t}\r\n\r\n\t//Try search function\r\n\tfunction searchKeyword (string memory searchToken) public {\r\n\t\tsearchWord = searchToken;\r\n\t}\r\n\r\n\tfunction searchResult () public view returns (string memory) {\r\n\t\treturn searchWord;\r\n\t}\r\n}\r\n",
  "sourcePath": "C:/Users/User/Documents/Dev/IPFS_3/src/contracts/storeHash.sol",
  "compiler": {
    "name": "solc",
    "version": "0.5.16+commit.9c3226ce.Emscripten.clang"
  },
  "schemaVersion": "3.4.1",
  "updatedAt": "2021-07-04T09:21:19.545Z",
  "devdoc": {
    "methods": {}
  },
  "userdoc": {
    "methods": {}
  }
}